:020000040000FA
:06000000B4EF04F0120051
:02002A000000D4
:04002C00D9CFE6FF43
:10003000E1CFD9FF160EE126D9500B0FE96EDACFCA
:10004000EAFF540EEE6E610EEE6E6B0EEE6E650EF6
:10005000EE6E200EEE6E520EEE6E690EEE6E730EAA
:10006000EE6E6B0EEE6E730EEE6EEE6A7BEC02F0D1
:10007000A6EC02F082EC02F00A0EDB6AD9500B0FFC
:10008000026EDACF03F00A0EDB500F010224E96E94
:10009000000E0320EA6EEF501BE0D9500B0F026EEA
:1000A000DACF03F00A0EDB500224E96E000E0320C3
:1000B000EA6EEF50E66E0A0EDBCFE6FF560EE66EF6
:1000C000ABEC01F0E552E552E5520A0EDB2AD6D739
:1000D000E66A560EE66ED8EC01F0E552E552DF6EA8
:1000E000010EE66E560EE66ED8EC01F0E552E552D2
:1000F000E76E010EE7CFDBFF020EE66E560EE66EF0
:10010000D8EC01F0E552E552E76E020EE7CFDBFFD7
:10011000030EE66E560EE66ED8EC01F0E552E5529F
:10012000E76E030EE7CFDBFF040EE66E560EE66EBB
:10013000D8EC01F0E552E552E76E040EE7CFDBFFA5
:10014000050EE66E560EE66ED8EC01F0E552E5526D
:10015000E76E050EE7CFDBFF060EE66E560EE66E87
:10016000D8EC01F0E552E552E76E060EE7CFDBFF73
:10017000070EE66E560EE66ED8EC01F0E552E5523B
:10018000E76E070EE7CFDBFF080EE66E560EE66E53
:10019000D8EC01F0E552E552E76E080EE7CFDBFF41
:1001A000090EE66E560EE66ED8EC01F0E552E55209
:1001B000E76E090EE7CFDBFF6EEC04F0000901E00B
:1001C000FBD7DFCFE6FFB3EC03F0E5520A0EE66E95
:1001D0008DEC04F0E5526EEC04F0000901E0FBD771
:1001E000010EDBCFE6FFB3EC03F0E5520A0EE66E3C
:1001F0008DEC04F0E5526EEC04F0000901E0FBD751
:10020000020EDBCFE6FFB3EC03F0E5520A0EE66E1A
:100210008DEC04F0E5526EEC04F0000901E0FBD730
:10022000030EDBCFE6FFB3EC03F0E5520A0EE66EF9
:100230008DEC04F0E5526EEC04F0000901E0FBD710
:10024000040EDBCFE6FFB3EC03F0E5520A0EE66ED8
:100250008DEC04F0E5526EEC04F0000901E0FBD7F0
:10026000050EDBCFE6FFB3EC03F0E5520A0EE66EB7
:100270008DEC04F0E5526EEC04F0000901E0FBD7D0
:10028000060EDBCFE6FFB3EC03F0E5520A0EE66E96
:100290008DEC04F0E5526EEC04F0000901E0FBD7B0
:1002A000070EDBCFE6FFB3EC03F0E5520A0EE66E75
:1002B0008DEC04F0E552080EDBCFE6FFB3EC03F063
:1002C000E5520A0EE66E8DEC04F0E5526EEC04F099
:1002D000000901E0FBD7090EDBCFE6FFB3EC03F02A
:1002E000E5520A0EE66E8DEC04F0E552FFD7160ECD
:1002F000E15C02E2E16AE552E16EE552E7CFD9FF47
:020300001200E9
:0E030200020EE66EC2EC04F0E55212000F0E81
:10031000E66EA4EC04F0E5521200050EE66EA4ECC5
:1003200004F0E5521200ADEC02F0C5BC03D0010EA2
:1003300003D002D0000E00D01200ADEC02F0C58A4E
:10034000C588C5B8FED71200ADEC02F0C59AC588C5
:10035000C5B8FED71200D9CFE6FFE1CFD9FFB5EC83
:1003600002F0FE0EDB50E824E66EC4EC02F0E5522B
:10037000DADF000919E0FD0EDBCFE6FFC4EC02F086
:10038000E552D1DF000910E0FC0EDBCFE6FFC4EC44
:1003900002F0E552C8DF000907E0BFEC02F0050EED
:1003A000E66EA4EC04F0E552E552E7CFD9FF120067
:1003B000D9CFE6FFE1CFD9FFE652B5EC02F0FE0E51
:1003C000DB50E824E66EC4EC02F0E552ACDF000935
:1003D0001EE0FD0EDBCFE6FFC4EC02F0E552A3DF2A
:1003E000000915E0B5EC02F0FE0EDB50E82401092F
:1003F000E66EC4EC02F0E55296DF000908E0D8ECA6
:1004000002F0DF6E9ADFBFEC02F0DF5000D0E55261
:08041000E552E7CFD9FF12000D
:08041800D9CFE6FFE1CFD9FFC7
:10042000F00E83169516959A9598959C8C9A8C98B3
:100430008C9C87EC01F0300EE66EDAEC03F0E552AE
:10044000050EE66E8DEC04F0E552300EE66EDAEC49
:1004500003F0E552010EE66E8DEC04F0E552320E2B
:10046000E66EDAEC03F0E5526EEC04F0000901E010
:10047000FBD76EEC04F0000901E0FBD7FE0EDBCFEA
:10048000E6FFDAEC03F0E5526EEC04F0000901E05F
:10049000FBD7080EE66EDAEC03F0E5526EEC04F0E2
:1004A000000901E0FBD70F0EE66EDAEC03F0E5522F
:1004B0006EEC04F0000901E0FBD7010EE66EDAEC09
:1004C00003F0E5526EEC04F0000901E0FBD7040EE6
:1004D000E66EDAEC03F0E5526EEC04F0000901E0A0
:1004E000FBD7800EE66E38EC03F0E55200D0E55203
:0604F000E7CFD9FF120066
:0A04F6009486948894948B84956A90
:100500008C6A1200280EE66E0CEC02F0E5526EECDE
:1005100004F0000901E0FBD70C0EE66EDAEC03F004
:10052000E5526EEC04F0000901E0FBD7800EE66EA8
:10053000DAEC03F0E5526EEC04F0000901E0FBD7C1
:10054000010EE66EDAEC03F0E5521200C79EC68695
:10055000C694C692C690C68A12001F0EC51403E147
:10056000040EC71401E0F9D71200F7DFC580C5B04B
:10057000FED71200F2DFC582C5B0FED71200EDDF54
:10058000C584C5B4FED71200D9CFE6FFE1CFD9FFAD
:10059000E4DFFE0EDB50C96EC6AE06D0DEDFC69EBF
:1005A000DCDFFE0EDB50C96EE552E7CFD9FF12004B
:1005B000D9CFE6FFE1CFD9FFE652CFDFC586CDDF49
:1005C000C950DF6EDF5000D0E552E552E7CFD9FFCA
:0205D000120017
:0E05D2002A0EF66E000EF76E000EF86E000197
:1005E0000900F550856F0900F550866F03E18567B6
:1005F00001D03DD00900F550806F0900F550816FA2
:100600000900F550826F09000900F550E96E0900F4
:10061000F550EA6E090009000900F550836F0900E2
:10062000F550846F09000900F6CF87F0F7CF88F006
:10063000F8CF89F080C0F6FF81C0F7FF82C0F8FFD5
:100640000001835302E1845307E00900F550EE6E88
:100650008307F8E28407F9D787C0F6FF88C0F7FF61
:1006600089C0F8FF00018507000E865BBFD7120026
:10067000D9CFE6FFE1CFD9FFF00E95168316FE0E17
:10068000DB508009E8380F0B0F0B83128C9A8C9883
:1006900081EC01F08C8C81EC01F08C9CF00E8316C7
:1006A000FE0EDB500F0B831281EC01F08C8C81EC81
:1006B00001F08C9C0F0E951200D0E552E7CFD9FFC8
:0206C000120026
:0E06C200D9CFE6FFE1CFD9FFF00E95168316D3
:1006D000FE0EDB504009E8380F0B0F0B83128C9A8B
:1006E0008C9881EC01F08C8C81EC01F08C9CF00EEC
:1006F0008316FE0EDB500F0B831281EC01F08C8C05
:1007000081EC01F08C9C0F0E951200D0E552E7CFE2
:04071000D9FF1200FB
:0C071400D9CFE6FFE1CFD9FFFD0EDBCF0F
:10072000F6FFFE0EDBCFF7FF0800F55017E06EEC8A
:1007300004F0000901E0FBD7FD0EDBCFF6FFFE0E53
:10074000DBCFF7FF0800F550E66EB3EC03F0E5529F
:10075000FD0EDB2AFE0E01E3DB2AE0D700D0E552D6
:06076000E7CFD9FF1200F3
:0A076600D9CFE6FFE1CFD9FFF00E76
:1007700095168316FE0EDB380F0B0F0B83128C8839
:100780008C9A81EC01F08C8C81EC01F08C9CF00E49
:100790008316FE0EDB500F0B831281EC01F08C8C64
:1007A00081EC01F08C9C0F0E951200D0E552E7CF42
:0407B000D9FF12005B
:0C07B400D9CFE6FFE1CFD9FFF00E95167B
:1007C0008316FE0EDB380F0B0F0B83128C9A8C985E
:1007D00081EC01F08C8C81EC01F08C9CF00E831686
:1007E000FE0EDB500F0B831281EC01F08C8C81EC40
:1007F00001F08C9C0F0E951200D0E552E7CFD9FF87
:020800001200E4
:0E080200D9CFE6FFE1CFD9FFFD0EDBCFE9FF36
:10081000FE0EDBCFEAFFEF5016E06EEC04F00009AD
:1008200001E0FBD7FD0EDBCFE9FFFE0EDBCFEAFFD9
:10083000EF50E66EB3EC03F0E552FD0EDB2AFE0E40
:1008400001E3DB2AE2D700D0E552E7CFD9FF12005F
:10085000D9CFE6FFE1CFD9FFE6528C8A8C8881ECB4
:1008600001F08C8C81EC01F08338F00BF00BDF6E23
:100870008C9C81EC01F08C8C81EC01F00F0E8314C8
:10088000DF128C9C8C988C9ADF5000D0E552E55298
:06089000E7CFD9FF1200C2
:0A089600D9CFE6FFE1CFD9FFE6520B
:1008A0008C8A8C9881EC01F08C8C81EC01F083387F
:1008B000F00BF00BDF6E8C9C81EC01F08C8C81ECEA
:1008C00001F00F0E8314DF128C9C8C9A7F0EDF14C4
:0C08D00000D0E552E552E7CFD9FF12003E
:0408DC008C8A8C98DE
:1008E00081EC01F08C8C81EC01F083A60BD08C9C08
:1008F00081EC01F08C8C81EC01F08C9C8C9A010EC7
:100900000BD00AD08C9C81EC01F08C8C81EC01F036
:0A0910008C9C8C9A000E00D012009F
:06091A00FF0EE350056E24
:10092000EF0E01D0F30EE76EE72E94EF04F00C0EFD
:10093000046EE76AE72E9AEF04F0042E99EF04F0B4
:08094000052E92EF04F01200F5
:08094800FF0EE350056E480E9E
:1009500001D04C0EE76EE72EFED7E76AE72EFED7F2
:08096000052EF7D7000012007C
:0809680015EE00F025EE00F091
:10097000F86A019CE9EC02F0D4EC04F016EC00F00B
:04098000FBD712008F
:0C098400FF0EE350E84E1200000000D00F
:0A09900000D000D0E82EFAD71200C4
:06099A0000EE00F00F0E5C
:0809A000EE6AEA62FDD71200C5
:0209A80012003B
:020000040030CA
:0100010002FC
:010003001EDE
:010006008178
:00000001FF
