:020000040000FA
:0600000081EF04F0120084
:02002A000000D4
:04002C00D9CFE6FF43
:10003000E1CFD9FF160EE126D9500B0FE96EDACFCA
:10004000EAFF540EEE6E610EEE6E6B0EEE6E650EF6
:10005000EE6E200EEE6E520EEE6E690EEE6E730EAA
:10006000EE6E6B0EEE6E730EEE6EEE6AF0EC01F05D
:100070001BEC02F0F7EC01F00A0EDB6AD9500B0F13
:10008000026EDACF03F00A0EDB500F010224E96E94
:10009000000E0320EA6EEF501BE0D9500B0F026EEA
:1000A000DACF03F00A0EDB500224E96E000E0320C3
:1000B000EA6EEF50E66E0A0EDBCFE6FF560EE66EF6
:1000C00068EC02F0E552E552E5520A0EDB2AD6D77B
:1000D000E66A560EE66E8CEC02F0E552E552DF6EF3
:1000E000010EE66E560EE66E8CEC02F0E552E5521D
:1000F000E76E010EE7CFDBFF020EE66E560EE66EF0
:100100008CEC02F0E552E552E76E020EE7CFDBFF22
:10011000030EE66E560EE66E8CEC02F0E552E552EA
:10012000E76E030EE7CFDBFF040EE66E560EE66EBB
:100130008CEC02F0E552E552E76E040EE7CFDBFFF0
:10014000050EE66E560EE66E8CEC02F0E552E552B8
:10015000E76E050EE7CFDBFF060EE66E560EE66E87
:100160008CEC02F0E552E552E76E060EE7CFDBFFBE
:10017000070EE66E560EE66E8CEC02F0E552E55286
:10018000E76E070EE7CFDBFF080EE66E560EE66E53
:100190008CEC02F0E552E552E76E080EE7CFDBFF8C
:1001A000090EE66E560EE66E8CEC02F0E552E55254
:1001B000E76E090EE7CFDBFF3BEC04F0000901E03E
:1001C000FBD7DFCFE6FF80EC03F0E552640EE66E6E
:1001D0005AEC04F0E5523BEC04F0000901E0FBD7D7
:1001E000010EDBCFE6FF80EC03F0E552640EE66E15
:1001F0005AEC04F0E5523BEC04F0000901E0FBD7B7
:10020000020EDBCFE6FF80EC03F0E552640EE66EF3
:100210005AEC04F0E5523BEC04F0000901E0FBD796
:10022000030EDBCFE6FF80EC03F0E552640EE66ED2
:100230005AEC04F0E5523BEC04F0000901E0FBD776
:10024000040EDBCFE6FF80EC03F0E552640EE66EB1
:100250005AEC04F0E5523BEC04F0000901E0FBD756
:10026000050EDBCFE6FF80EC03F0E552640EE66E90
:100270005AEC04F0E5523BEC04F0000901E0FBD736
:10028000060EDBCFE6FF80EC03F0E552640EE66E6F
:100290005AEC04F0E5523BEC04F0000901E0FBD716
:1002A000070EDBCFE6FF80EC03F0E552640EE66E4E
:1002B0005AEC04F0E552080EDBCFE6FF80EC03F0C9
:1002C000E552640EE66E5AEC04F0E5523BEC04F0A5
:1002D000000901E0FBD7090EDBCFE6FF80EC03F05D
:1002E000E552640EE66E5AEC04F0E552FFD7160EA6
:1002F000E15C02E2E16AE552E16EE552E7CFD9FF47
:020300001200E9
:0E030200D9CFE6FFE1CFD9FFF00E8316951696
:10031000959A9598959C8C9A8C988C9C5CEC02F0A4
:10032000300EE66EA7EC03F0E552050EE66E5AECD1
:1003300004F0E552300EE66EA7EC03F0E552010E34
:10034000E66E5AEC04F0E552320EE66EA7EC03F0CE
:10035000E5523BEC04F0000901E0FBD73BEC04F074
:10036000000901E0FBD7FE0EDBCFE6FFA7EC03F0B0
:10037000E5523BEC04F0000901E0FBD7080EE66E05
:10038000A7EC03F0E5523BEC04F0000901E0FBD7D9
:100390000F0EE66EA7EC03F0E5523BEC04F000090B
:1003A00001E0FBD7010EE66EA7EC03F0E5523BEC53
:1003B00004F0000901E0FBD7040EE66EA7EC03F0A1
:1003C000E5523BEC04F0000901E0FBD7800EE66E3D
:1003D00005EC03F0E55200D0E552E7CFD9FF12005B
:1003E0009486948894948B84956A8C6A1200280E63
:1003F000E66E81EC01F0E5523BEC04F0000901E00F
:10040000FBD70C0EE66EA7EC03F0E5523BEC04F0D4
:10041000000901E0FBD7800EE66EA7EC03F0E55281
:100420003BEC04F0000901E0FBD7010EE66EA7ECFF
:1004300003F0E5521200C79EC686C694C692C690C7
:10044000C68A12001F0EC51403E1040EC71401E092
:10045000F9D71200F7DFC580C5B0FED71200F2DF72
:10046000C582C5B0FED71200EDDFC584C5B4FED786
:100470001200D9CFE6FFE1CFD9FFE4DFFE0EDB505B
:10048000C96EE552E7CFD9FF1200D9CFE6FFE1CF21
:10049000D9FFE652D7DFC586D5DFC950DF6EDF5002
:0C04A00000D0E552E552E7CFD9FF120072
:0404AC00020EE66EE8
:1004B0008FEC04F0E55212000F0EE66E71EC04F0C2
:1004C000E5521200050EE66E71EC04F0E5521200E2
:1004D000D9CFE6FFE1CFD9FF2AEC02F0FE0EDB50C8
:1004E000E824E66E39EC02F0E552FD0EDBCFE6FFC4
:1004F00039EC02F0E552FC0EDBCFE6FF39EC02F0FE
:10050000E55234EC02F0050EE66E71EC04F0E552B3
:10051000E552E7CFD9FF1200D9CFE6FFE1CFD9FFEF
:10052000E6522AEC02F0FE0EDB50E824E66E39ECCF
:1005300002F0E552FD0EDBCFE6FF39EC02F0E552AA
:100540002FEC02F0FE0EDB50E8240109E66E39ECD8
:1005500002F0E55245EC02F0DF6E34EC02F0DF50C1
:0C05600000D0E552E552E7CFD9FF1200B1
:04056C002A0EF66EEF
:10057000000EF76E000EF86E00010900F550856F51
:100580000900F550866F03E1856701D03DD0090071
:10059000F550806F0900F550816F0900F550826FAA
:1005A00009000900F550E96E0900F550EA6E0900EE
:1005B00009000900F550836F0900F550846F0900A8
:1005C0000900F6CF87F0F7CF88F0F8CF89F080C028
:1005D000F6FF81C0F7FF82C0F8FF0001835302E1FC
:1005E000845307E00900F550EE6E8307F8E28407B4
:1005F000F9D787C0F6FF88C0F7FF89C0F8FF000170
:0A0600008507000E865BBFD71200CD
:06060A00D9CFE6FFE1CFAD
:10061000D9FFF00E95168316FE0EDB508009E838E0
:100620000F0B0F0B83128C9A8C9856EC02F08C8C6B
:1006300056EC02F08C9CF00E8316FE0EDB500F0B76
:10064000831256EC02F08C8C56EC02F08C9C0F0E50
:0C065000951200D0E552E7CFD9FF120050
:04065C00D9CFE6FF0D
:10066000E1CFD9FFF00E95168316FE0EDB50400940
:10067000E8380F0B0F0B83128C9A8C9856EC02F013
:100680008C8C56EC02F08C9CF00E8316FE0EDB5028
:100690000F0B831256EC02F08C8C56EC02F08C9C03
:0E06A0000F0E951200D0E552E7CFD9FF1200E1
:0206AE00D9CFA2
:1006B000E6FFE1CFD9FFFD0EDBCFF6FFFE0EDBCF6D
:1006C000F7FF0800F55017E03BEC04F0000901E0EB
:1006D000FBD7FD0EDBCFF6FFFE0EDBCFF7FF0800EA
:1006E000F550E66E80EC03F0E552FD0EDB2AFE0EBF
:1006F00001E3DB2AE0D700D0E552E7CFD9FF1200B3
:10070000D9CFE6FFE1CFD9FFF00E95168316FE0E86
:10071000DB380F0B0F0B83128C888C9A56EC02F08F
:100720008C8C56EC02F08C9CF00E8316FE0EDB5087
:100730000F0B831256EC02F08C8C56EC02F08C9C62
:0E0740000F0E951200D0E552E7CFD9FF120040
:02074E00D9CF01
:10075000E6FFE1CFD9FFF00E95168316FE0EDB38CB
:100760000F0B0F0B83128C9A8C9856EC02F08C8C2A
:1007700056EC02F08C9CF00E8316FE0EDB500F0B35
:10078000831256EC02F08C8C56EC02F08C9C0F0E0F
:0C079000951200D0E552E7CFD9FF12000F
:04079C00D9CFE6FFCC
:1007A000E1CFD9FFFD0EDBCFE9FFFE0EDBCFEAFF85
:1007B000EF5016E03BEC04F0000901E0FBD7FD0E22
:1007C000DBCFE9FFFE0EDBCFEAFFEF50E66E80ECF9
:1007D00003F0E552FD0EDB2AFE0E01E3DB2AE2D731
:0A07E00000D0E552E7CFD9FF120068
:0607EA00D9CFE6FFE1CFCC
:1007F000D9FFE6528C8A8C8856EC02F08C8C56EC31
:1008000002F08338F00BF00BDF6E8C9C56EC02F09C
:100810008C8C56EC02F00F0E8314DF128C9C8C989B
:100820008C9ADF5000D0E552E552E7CFD9FF120095
:10083000D9CFE6FFE1CFD9FFE6528C8A8C9856ECEF
:1008400002F08C8C56EC02F08338F00BF00BDF6E6C
:100850008C9C56EC02F08C8C56EC02F00F0E83143C
:10086000DF128C9C8C9A7F0EDF1400D0E552E5528B
:06087000E7CFD9FF1200E2
:0A0876008C8A8C9856EC02F08C8CF2
:1008800056EC02F083A60BD08C9C56EC02F08C8CBC
:1008900056EC02F08C9C8C9A010E0BD00AD08C9CEA
:1008A00056EC02F08C8C56EC02F08C9C8C9A000E6C
:0408B00000D0120062
:0C08B400FF0EE350056EEF0E01D0F30EB6
:1008C000E76EE72E61EF04F00C0E046EE76AE72E88
:1008D00067EF04F0042E66EF04F0052E5FEF04F0DE
:0208E000120004
:0E08E200FF0EE350056E480E01D04C0EE76E7F
:1008F000E72EFED7E76AE72EFED7052EF7D70000D2
:020900001200E3
:0E09020015EE00F025EE00F0F86A019CB6EC50
:0E09100002F0A1EC04F016EC00F0FBD7120090
:02091E00FF0ECA
:10092000E350E84E1200000000D000D000D0E82EC6
:04093000FAD71200E0
:0C09340000EE00F00F0EEE6AEA62FDD744
:020940001200A3
:020942001200A1
:020000040030CA
:0100010002FC
:010003001EDE
:010006008178
:00000001FF
